{
  "_format": "hh-sol-artifact-1",
  "contractName": "Greeter",
  "sourceName": "contracts/Greeter.sol",
  "abi": [
    {
      "inputs": [
        {
          "internalType": "string",
          "name": "_greeting",
          "type": "string"
        }
      ],
      "stateMutability": "nonpayable",
      "type": "constructor"
    },
    {
      "inputs": [],
      "name": "greet",
      "outputs": [
        {
          "internalType": "string",
          "name": "",
          "type": "string"
        }
      ],
      "stateMutability": "view",
      "type": "function"
    },
    {
      "inputs": [
        {
          "internalType": "string",
          "name": "_greeting",
          "type": "string"
        }
      ],
      "name": "setGreet",
      "outputs": [],
      "stateMutability": "nonpayable",
      "type": "function"
    }
  ],
  "bytecode": "0x60806040523480156200001157600080fd5b5060405162000d8338038062000d838339818101604052810190620000379190620001e3565b80600090816200004891906200047f565b505062000566565b6000604051905090565b600080fd5b600080fd5b600080fd5b600080fd5b6000601f19601f8301169050919050565b7f4e487b7100000000000000000000000000000000000000000000000000000000600052604160045260246000fd5b620000b9826200006e565b810181811067ffffffffffffffff82111715620000db57620000da6200007f565b5b80604052505050565b6000620000f062000050565b9050620000fe8282620000ae565b919050565b600067ffffffffffffffff8211156200012157620001206200007f565b5b6200012c826200006e565b9050602081019050919050565b60005b83811015620001595780820151818401526020810190506200013c565b60008484015250505050565b60006200017c620001768462000103565b620000e4565b9050828152602081018484840111156200019b576200019a62000069565b5b620001a884828562000139565b509392505050565b600082601f830112620001c857620001c762000064565b5b8151620001da84826020860162000165565b91505092915050565b600060208284031215620001fc57620001fb6200005a565b5b600082015167ffffffffffffffff8111156200021d576200021c6200005f565b5b6200022b84828501620001b0565b91505092915050565b600081519050919050565b7f4e487b7100000000000000000000000000000000000000000000000000000000600052602260045260246000fd5b600060028204905060018216806200028757607f821691505b6020821081036200029d576200029c6200023f565b5b50919050565b60008190508160005260206000209050919050565b60006020601f8301049050919050565b600082821b905092915050565b600060088302620003077fffffffffffffffffffffffffffffffffffffffffffffffffffffffffffffffff82620002c8565b620003138683620002c8565b95508019841693508086168417925050509392505050565b6000819050919050565b6000819050919050565b6000620003606200035a62000354846200032b565b62000335565b6200032b565b9050919050565b6000819050919050565b6200037c836200033f565b620003946200038b8262000367565b848454620002d5565b825550505050565b600090565b620003ab6200039c565b620003b881848462000371565b505050565b5b81811015620003e057620003d4600082620003a1565b600181019050620003be565b5050565b601f8211156200042f57620003f981620002a3565b6200040484620002b8565b8101602085101562000414578190505b6200042c6200042385620002b8565b830182620003bd565b50505b505050565b600082821c905092915050565b6000620004546000198460080262000434565b1980831691505092915050565b60006200046f838362000441565b9150826002028217905092915050565b6200048a8262000234565b67ffffffffffffffff811115620004a657620004a56200007f565b5b620004b282546200026e565b620004bf828285620003e4565b600060209050601f831160018114620004f75760008415620004e2578287015190505b620004ee858262000461565b8655506200055e565b601f1984166200050786620002a3565b60005b8281101562000531578489015182556001820191506020850194506020810190506200050a565b868310156200055157848901516200054d601f89168262000441565b8355505b6001600288020188555050505b505050505050565b61080d80620005766000396000f3fe608060405234801561001057600080fd5b50600436106100365760003560e01c80639698086b1461003b578063cfae321714610057575b600080fd5b6100556004803603810190610050919061039f565b610075565b005b61005f6100c7565b60405161006c9190610467565b60405180910390f35b6100b46040518060400160405280600d81526020017f5468652076616c7565206973200000000000000000000000000000000000000081525082610159565b80600090816100c3919061069f565b5050565b6060600080546100d6906104b8565b80601f0160208091040260200160405190810160405280929190818152602001828054610102906104b8565b801561014f5780601f106101245761010080835404028352916020019161014f565b820191906000526020600020905b81548152906001019060200180831161013257829003601f168201915b5050505050905090565b6101f1828260405160240161016f929190610771565b6040516020818303038152906040527f4b5c4277000000000000000000000000000000000000000000000000000000007bffffffffffffffffffffffffffffffffffffffffffffffffffffffff19166020820180517bffffffffffffffffffffffffffffffffffffffffffffffffffffffff83818316178352505050506101f5565b5050565b61020c8161020461020f610230565b63ffffffff16565b50565b60006a636f6e736f6c652e6c6f679050600080835160208501845afa505050565b61023b819050919050565b6102436107a8565b565b6000604051905090565b600080fd5b600080fd5b600080fd5b600080fd5b6000601f19601f8301169050919050565b7f4e487b7100000000000000000000000000000000000000000000000000000000600052604160045260246000fd5b6102ac82610263565b810181811067ffffffffffffffff821117156102cb576102ca610274565b5b80604052505050565b60006102de610245565b90506102ea82826102a3565b919050565b600067ffffffffffffffff82111561030a57610309610274565b5b61031382610263565b9050602081019050919050565b82818337600083830152505050565b600061034261033d846102ef565b6102d4565b90508281526020810184848401111561035e5761035d61025e565b5b610369848285610320565b509392505050565b600082601f83011261038657610385610259565b5b813561039684826020860161032f565b91505092915050565b6000602082840312156103b5576103b461024f565b5b600082013567ffffffffffffffff8111156103d3576103d2610254565b5b6103df84828501610371565b91505092915050565b600081519050919050565b600082825260208201905092915050565b60005b83811015610422578082015181840152602081019050610407565b60008484015250505050565b6000610439826103e8565b61044381856103f3565b9350610453818560208601610404565b61045c81610263565b840191505092915050565b60006020820190508181036000830152610481818461042e565b905092915050565b7f4e487b7100000000000000000000000000000000000000000000000000000000600052602260045260246000fd5b600060028204905060018216806104d057607f821691505b6020821081036104e3576104e2610489565b5b50919050565b60008190508160005260206000209050919050565b60006020601f8301049050919050565b600082821b905092915050565b60006008830261054b7fffffffffffffffffffffffffffffffffffffffffffffffffffffffffffffffff8261050e565b610555868361050e565b95508019841693508086168417925050509392505050565b6000819050919050565b6000819050919050565b600061059c6105976105928461056d565b610577565b61056d565b9050919050565b6000819050919050565b6105b683610581565b6105ca6105c2826105a3565b84845461051b565b825550505050565b600090565b6105df6105d2565b6105ea8184846105ad565b505050565b5b8181101561060e576106036000826105d7565b6001810190506105f0565b5050565b601f82111561065357610624816104e9565b61062d846104fe565b8101602085101561063c578190505b610650610648856104fe565b8301826105ef565b50505b505050565b600082821c905092915050565b600061067660001984600802610658565b1980831691505092915050565b600061068f8383610665565b9150826002028217905092915050565b6106a8826103e8565b67ffffffffffffffff8111156106c1576106c0610274565b5b6106cb82546104b8565b6106d6828285610612565b600060209050601f83116001811461070957600084156106f7578287015190505b6107018582610683565b865550610769565b601f198416610717866104e9565b60005b8281101561073f5784890151825560018201915060208501945060208101905061071a565b8683101561075c5784890151610758601f891682610665565b8355505b6001600288020188555050505b505050505050565b6000604082019050818103600083015261078b818561042e565b9050818103602083015261079f818461042e565b90509392505050565b7f4e487b7100000000000000000000000000000000000000000000000000000000600052605160045260246000fdfea2646970667358221220dc5baf3163cebc2b5ee1669bc8ce708fcfa78a02db3de58a7e106496a025cb7864736f6c63430008130033",
  "linkReferences": {},
  "deployedLinkReferences": {}
}